:020000040800F2
:10000000D806002045010008FB130008F313000880
:10001000F7130008890C0008A72100080000000061
:100020000000000000000000000000005701000870
:10003000390F0008000000005B010008811800086B
:100040005F0100085F0100085F0100085F01000810
:100050005F0100085F0100085F0100085F01000800
:100060005F0100085F0100085F0100085F010008F0
:100070005F0100085F0100085F0100085F010008E0
:100080005F0100085F0100085F0100085F010008D0
:100090005F0100085F0100085F0100085F010008C0
:1000A0005F0100085F0100085F0100085F010008B0
:1000B0005F0100085F0100085F0100085F010008A0
:1000C0005F0100085F0100085F0100085F01000890
:1000D0005F0100089D1E00085F0100085F01000825
:1000E0005F0100085F0100085F0100085F01000870
:1000F0005F0100085F0100085F0100085F01000860
:100100005F0100085F0100085F0100085F0100084F
:100110005F0100085F0100085F0100085F0100083F
:100120005F0100085F0100085F0100085F0100082F
:10013000DFF80CD000F082FB004800470D2B0008D0
:10014000D80600200648804706480047FEE7FEE73D
:10015000FEE7FEE7FEE7FEE7FEE7FEE7FEE7FEE777
:1001600045190008310100080649074A086850434C
:1001700043F23902104408604008704701490860A2
:1001800070470000540000206D4EC641D2B201E01D
:1001900000F8012B491EFBD270470022F6E710B58C
:1001A00013460A4604461946FFF7F0FF204610BDE5
:1001B00030B505462A460B4612F8010B13F8014BE1
:1001C00008B1A042F8D01CB1002802D06D1CF1E7A4
:1001D000284630BDF0B480EA0102D40F4200B2EBF1
:1001E000410F02D20246084611464A0042D0C30DD2
:1001F000DDB2C1F3C752AD1A202D35DAC1F31601B5
:1002000041F4000204B15242C5F1200602FA06F19F
:100210002A411044B3EBD05F23D0C4B1012DA0EB31
:10022000C35009DCF0BC4FF0004202EAC352DBB21B
:1002300000F5000000F01CB9400000F1807000EBF8
:10024000C350A0F1807040EAD170490009E049082C
:1002500041EAC071A0EBC35000F50000400800EB7C
:10026000C350F0BC00F0FBB86142012202EB410137
:10027000001BF6E7F0BC704781F00041AAE780F070
:100280000040A7E780EA010210B502F000434000F9
:1002900022D04A001FD0010E01EB1261C0F35600BC
:1002A000C2F3560240F4000042F40002A0FB022018
:1002B00000047F39140400D0401C50EA124001D4DD
:1002C0004000491EC2B20C0604EBD010401C40088E
:1002D000802A02D003E0002010BD20F00100002998
:1002E00000DA0020184310BD30B480EA010202F0A9
:1002F000004530F0004221F0004013D090B1C30D12
:10030000D40DC2F31601C0F31600E41A41F4000143
:1003100040F400027D34914201D3641C00E04900A6
:10032000002C02DA30BC002070474FF4000000239C
:10033000914201D3891A034340084FEA4101F7D1A2
:1003400051B1914202D14FF0004105E002D24FF08D
:10035000010101E06FF0010103EBC450284430BCFF
:1003600000F07DB8C10F80EAE0700844CA07962308
:10037000002100F07DB896230022114600F078B8E5
:1003800000F0004230F000400AD0C10D01F560716C
:10039000C0F3160042EA0151C208400711437047FA
:1003A0000020014670470000002801DBC0F100403A
:1003B000002901DBC1F1004181427047002801DBC7
:1003C000C0F10040002901DBC1F1004188427047C3
:1003D00030B50B46014600202022012409E021FA15
:1003E00002F59D4205D303FA02F5491B04FA02F512
:1003F0002844151EA2F10102F1DC30BD2DE9F05FA9
:100400000546002092469B46884606468146402483
:100410001BE0284641464746224600F030FA534644
:100420005A46C01A914110D311461846224600F090
:1004300017FA2D1A67EB01084F46224601200021CA
:1004400000F00EFA17EB00094E41201EA4F1010442
:10045000DFDC484631462A464346BDE8F09F002986
:10046000A8BF7047401C490008BF20F0010070473A
:1004700010B4B0FA80FC00FA0CF050EA010404BF9A
:1004800010BC704749B1CCF1200421FA04F411FAF0
:100490000CF118BF012121430843A3EB0C01CB1D34
:1004A0004FEA00614FEA102042BF002010BC7047A5
:1004B00000EBC35010440029A4BF10BC7047401C7F
:1004C000490008BF20F0010010BC70472DE9FE4F25
:1004D000804681EA0300C00F0C46009021F00041E5
:1004E00023F00045B8EB0200A94105D24046214661
:1004F00090461C460B46024623F00040104347D06E
:10050000270DC7F30A00C3F30A510290401A019065
:1005100040286BDAC3F3130040F4801B0098924626
:1005200020B10023D2EB030A63EB0B0B0198594671
:10053000C0F14002504600F093F906460D46504681
:100540005946019A00F0ABF910EB08006141002414
:1005500087EA115284EAE7731A4340D0009A62B3E3
:10056000019A012A4FEA075215DC001B61EB0201D8
:100570004FF0004202EA0752CDE90042001C41F56B
:10058000801132462B4600F0ABF903B0BDE8F08F86
:1005900040462146F9E7001B61EB0201001C41F5D2
:1005A000801300185B412018A2F5001747EB0301E8
:1005B00040EAD570B6196D4111E06D084FEA360674
:1005C00045EAC0754FEA0752001B61EB0201001CAF
:1005D00041F5801149084FEA300000195141324677
:1005E0002B4603B0BDE8F04F00F06BB90098012234
:1005F00040000023D0EB020263EBE0730098214639
:100600004FEAE074B8EB000061EB0401E9E783F026
:1006100000435BE781F0004158E72DE9FE4F81EA96
:10062000030404F0004421F0004100944FF0000B5B
:1006300023F0004350EA01045ED052EA03045BD089
:10064000C3F30A54C1F30A552C44A4F2F3340194C1
:10065000A0FB0254C1F3130141F48011C3F313034F
:1006600043F4801301FB024400FB034E840A970A03
:1006700044EA815447EA8357A4FB076802958D0A30
:1006800005FB07854FEA932C04FB0C542705029DBC
:100690004FEA065847EA1637B5EB08056EEB070C2C
:1006A000870E920E47EA811742EA8312A7FB0201E6
:1006B000B6EB0B0164EB00042B0D43EA0C335E1820
:1006C00044EB1C50DA465146E7FB0201C5F3130424
:1006D0004FEA0B3343EA14534FEA0432019C43EAD6
:1006E0000603A4F10C040294009CCDE900B400F0D0
:1006F000F7F803B0BDE8F08F00200146F9E72DE9D7
:10070000F04D81EA030404F0004B21F0004514464B
:100710004FF0000A23F0004150EA050220D054EACD
:1007200001021DD0C5F30A570246C5F31303C1F3F6
:100730001300C1F30A5640F4801543F48013A7EB6D
:100740000608101BD64608F2FD3873EB050002D3ED
:1007500008F1010801E092185B41B8F1000F03DADB
:1007600000200146BDE8F08D00204FF480110646C0
:1007700084460EE0171B73EB050705D3121B63EBD2
:10078000050306434CEA010C49084FEA3000921871
:100790005B4150EA0107EDD152EA030012D082EA30
:1007A000040083EA0501084305D0101BAB4106D2C3
:1007B0000122002306E000224FF0004302E06FF028
:1007C000010253101AEB06004CEB085110EB0A0023
:1007D00041EB0B01BDE8F04D00F073B8C1F30A52D4
:1007E000C1F3130140F2FF3341F480119A4202DA5F
:1007F00000200146704740F233439A42A2F233424E
:1008000002DC524200F03BB800F02AB830B5041EBA
:1008100071F1000404DB4FF00044404264EB01013D
:10082000141E73F1000405DB1C464FF000435242D6
:1008300063EB0403994208BF904230BD064C074D5C
:1008400006E0E06840F0010394E8070098471034A0
:10085000AC42F6D3FFF770FC982B0008B82B0008C9
:10086000202A04DB203A00FA02F100207047914070
:10087000C2F1200320FA03F3194390407047202A65
:1008800004DB203A21FA02F00021704721FA02F33A
:10089000D040C2F120029140084319467047202AF7
:1008A00006DBCB17203A41FA02F043EAE07306E098
:1008B00041FA02F3D040C2F12002914008431946A8
:1008C000704710B5141E73F1000408DA401C41F1A2
:1008D000000192185B411A4301D120F0010010BDC4
:1008E0002DE9F04D92469B4611B1B1FA81F202E03A
:1008F000B0FA80F220329046FFF7B2FF04460F466E
:1009000040EA0A0041EA0B0153465A46084313D015
:10091000114653EA010019D0C8F140025046FFF7D2
:10092000AEFF05460E46504659464246FFF798FF31
:10093000084305D0012004E020463946BDE8F08D8B
:100940000020054346EAE0762C4337430A986305C6
:10095000E40AA0EB08000022FD0A44EA47540A30EA
:1009600002D500200146E9E7010510196941DDE9DA
:10097000084500196941BDE8F04DA2E721B1826840
:1009800042F00102826003E0826822F0010282608C
:100990007047000010B504461248844208D1012176
:1009A000401500F09DFD0021601500F099FD17E055
:1009B0000D48844208D10121001500F091FD00216D
:1009C000201500F08DFD0BE00848844208D101217C
:1009D000C80300F085FD00214FF4004000F080FDC9
:1009E00010BD00000024014000280140003C0140EF
:1009F000014600208A6802F004020AB1012000E0EA
:100A0000002070470146C86C80B270470246002043
:100A100013680B400BB1012000E000207047014635
:100A200000208A6802F008020AB1012000E00020DC
:100A30007047000030B502460020002350680F4C7C
:100A400020400D790C6844EA0524204350609068EA
:100A50000B4C2040D1E902542C434D7944EA450423
:100A600020439060D06A20F470000C7C641EE4B2D5
:100A7000234340EA0350D06230BD0000FFFEF0FF88
:100A8000FDF7F1FF00B587B001214FF4017000F0D0
:100A900017FD4FF4004000F007FD2020ADF81800CE
:100AA00000208DF81B0006A9174800F0B9FB174875
:100AB000FFF770FF002001908DF808008DF8090005
:100AC0004FF4602003900020049001208DF8140062
:100AD00001A90E48FFF7AEFF01210C48FFF74EFFBA
:100AE0000A4800F093F800BF0848FFF798FF002875
:100AF000FAD1064800F09AF800BF0448FFF778FFE3
:100B00000028FAD107B000BD0008014000240140D0
:100B100070B5044600250723012221460C4800F049
:100B200019F800260FE00121094800F074F800BF11
:100B300002210748FFF76AFF0028F9D00448FFF7B1
:100B400061FF0544761C082EEDDBC5F3CF0070BDB8
:100B500000240140F0B504460D4600200021092D77
:100B600011DDE068A5F10A0606EB4607072606FA3E
:100B700007F18843A5F10A0606EB460603FA06F1DB
:100B80000843E0600CE0206905EB4507072606FAFC
:100B900007F1884305EB450603FA06F10843206197
:100BA000072A0FDA606B561E06EB86071F2606FA29
:100BB00007F18843561E06EB860605FA06F1084340
:100BC000606322E00D2A0FDA206BD61F06EB860742
:100BD0001F2606FA07F18843D61F06EB860605FA9C
:100BE00006F10843206310E0E06AA2F10D0606EB6F
:100BF00086071F2606FA07F18843A2F10D0606EBC9
:100C0000860605FA06F10843E062F0BD816841F00E
:100C100008018160704721B1826842F4A0028260BD
:100C200003E0826822F4A00282607047816841F08C
:100C300004018160704700002DE9F041044640F650
:100C4000FF70844202DB0020BDE8F0810A2C01DC49
:100C50000B48F9E72046FFF78EFB07460949FFF7E7
:100C600043FB06464FF07E51FFF709FB0546294638
:100C70002846FFF707FB06460149FFF703FBE3E7BA
:100C800000803B4500F07F4500BFFEE710B5012125
:100C9000052000F015FC0121054800F04DFB00F097
:100CA000F1F84FF40041034800F099FB10BD00003B
:100CB00000023000000801402DE9FC5F06460F46A7
:100CC00000200090019000F0DDF84FF400415C48F6
:100CD00000F083FB44F6206000F0E8F800F0C0F874
:100CE000002507E0681C05465649884202D90120C4
:100CF000BDE8FC9F00F0AAF80128F3D0002506E02B
:100D0000681C05464F49884201D90120F0E700F0F0
:100D10009DF80028F4D0002506E0681C05464949E6
:100D2000884201D90120E3E700F090F80128F4D0CF
:100D300072B6002437E04FF000082FE01DF80400E1
:100D40004006000E0DF80400002505E0681C05466D
:100D50003C49884200D968E000F078F80028F5D0D6
:100D600000F0C4F8814605E0484600F0B1F850288C
:100D700000D903E000F06AF80128F5D000BF48462A
:100D800000F0A6F8282805D91DF8040040F001005D
:100D90000DF8040008F1010000F0FF08B8F1080F99
:100DA000CCDB601CC4B2052CC5DB62B69DF800002C
:100DB0009DF8011008449DF8021008449DF80310A6
:100DC0000844C0B29DF80410884201D002208FE789
:100DD0009DF80100FFF7CFFA83461B49FFF784FA1D
:100DE00081469DF80000FFF7C6FA82464946FFF7A4
:100DF000F1F938609DF80300FFF7BDFA8346124908
:100E0000FFF772FA81469DF80200FFF7B4FA8246B6
:100E10004946FFF7DFF9306000F034F84FF4004145
:100E2000074800F0DCFA002062E762B600F02AF81A
:100E30004FF40041024800F0D2FA012058E70000C8
:100E400000080140A08601000000204110B54FF4C9
:100E50000041024800F0B8FA10BD0000000801404F
:100E600008B5684600F0BDFA48208DF803004FF43D
:100E70000040ADF800006946014800F0D1F908BD16
:100E80000008014008B5684600F0ABFA10208DF864
:100E90000300C002ADF8000003208DF8020069468F
:100EA000014800F0BDF908BD00080140064B596833
:100EB000064B1B6800FB03F200BF034B5B685B1A29
:100EC0009342FAD370470000001000E05000002069
:100ED000014604484068401A034A1268B0FBF2F029
:100EE00070470000001000E05000002001484068FA
:100EF00070470000001000E00A48006840F0807071
:100F0000084908600020084948600846006840F029
:100F100001000860054800680549B0FBF1F005498B
:100F200008607047FCED00E0001000E014000020B5
:100F300040420F00500000207047000010B5A2B0E2
:100F400000F09EFF6CA001F01DF84FF47A7001F0E4
:100F5000C5FD6AA000F084FF08B922B010BD00F002
:100F60008FFF4FF4FA7001F0B9FD65A001F00AF8A7
:100F700041F2883001F0B2FD63A000F071FF00F093
:100F80007FFF4FF4FA7001F0A9FD61A000F0FAFFB5
:100F90004FF47A7001F0A2FD58A000F061FF20B973
:100FA0005EA000F05DFF00B9D7E700F069FF4FF4E5
:100FB000FA7001F093FD5CA35EA260A102A801F0AB
:100FC000F5F802A800F0DEFF41F2883001F086FD5E
:100FD00000240EE049A000F043FF18B95CA000F027
:100FE0003FFF00B107E04FF47A7001F077FD601C1D
:100FF000C4B2052CEEDB00BF052C00DBADE700F032
:101000003FFF4FF4FA7001F069FD55A000F0BAFF00
:101010004FF47A7001F062FD54A000F021FF00F05F
:101020002FFF4FF4FA7001F059FD41A040A351A2E7
:1010300054A1009002A801F0B9F802A800F0A2FFA4
:101040004FF47A7001F04AFD2CA000F009FF00B9BE
:1010500083E700F015FF4FF4FA7001F03FFD40F216
:101060005B7353A256A102A801F0A0F802A800F0F9
:1010700089FF40F6B83001F031FD00240EE01FA0DA
:1010800000F0EEFE18B954A000F0EAFE00B107E04F
:101090004FF47A7001F022FD601CC4B2052CEEDB27
:1010A00000BF052C03DB00204F49087055E700F016
:1010B000E7FE4FF4FA7001F011FD4CA250A102A816
:1010C00001F074F802A800F05DFF4FF4FA6001F03F
:1010D00005FD0AA000F0C4FE10B94EA000F0C0FE4D
:1010E00000F0CEFE4FF4FA7001F0F8FC01203E490A
:1010F000087000BF31E70000415400004F4B000072
:1011000041542B5253540000726561647900000011
:1011100041542B43574D4F44453D31006E6F206382
:1011200068616E6765000000313233343536373818
:101130000000000073756E62616F000041542B4324
:10114000574A41503D222573222C2225732200004C
:101150005749464920434F4E4E45435445440000AD
:1011600041542B4349465352000000002B4349464B
:101170005352000073746D33325F66315F3030312B
:101180000000000041542B4D5154545553455243D7
:1011900046473D302C312C222573222C22257322E8
:1011A0002C222573222C302C302C2222000000000F
:1011B0003131382E3137382E3233362E3135360034
:1011C00041542B4D515454434F4E4E3D302C22250B
:1011D00073222C25642C30002B4D515454434F4E18
:1011E0004E45435445440000410000206175616351
:1011F000756C747572655F73656E736F7200000055
:1012000041542B4D5154545355423D302C2225739B
:10121000222C31002B4D5154545355424F4B00005A
:101220002DE9F0410246002500260020002300247D
:10123000002791F803C00CF00F0591F803C00CF0E3
:10124000100CBCF1000F03D091F802C04CEA050568
:1012500091F800C0BCF1000F31D0146800202BE0E1
:101260004FF0010C0CFA00F3B1F800C00CEA0306D1
:101270009E4220D183004FF00F0C0CFA03F7BC43C1
:1012800005FA03FC4CEA040491F803C0BCF1280FF2
:1012900006D14FF0010C0CFA00FCC2F814C00AE0B1
:1012A00091F803C0BCF1480F05D14FF0010C0CFAC6
:1012B00000FCC2F810C0401C0828D1D31460B1F85B
:1012C00000C0BCF1FF0F34DD546800202EE000F1B7
:1012D000080C4FF0010808FA0CF3B1F800C00CEA52
:1012E00003069E4221D183004FF00F0C0CFA03F746
:1012F000BC4305FA03FC4CEA040491F803C0BCF1BA
:10130000280F05D100F1080C08FA0CF8C2F8148077
:1013100091F803C0BCF1480F07D100F1080C4FF061
:10132000010808FA0CF8C2F81080401C0828CED337
:101330005460BDE8F0810000F0B50A4600230024A7
:101340000021002500F00046B6F1004F02D11D4EED
:10135000F16901E01B4E7168C0F3034583B200F4EC
:101360004016B6F5401F08D121F07061154E766821
:1013700026F07066134F7E6012E000F48016B6F51A
:10138000801F06D1032606FA05F4A14341F07061DF
:1013900006E0460D360103FA06F6B14341F07061EE
:1013A00022B1460D360103FA06F6314300F000463D
:1013B000B6F1004F02D1034EF16101E0014E7160C0
:1013C000F0BD0000000001400246002093680B4081
:1013D0000BB1012000E000207047416170470161BE
:1013E00070474FF6FF710180022181700421C170A6
:1013F000704700BFFEE700BFFEE7704770B50021F1
:1014000000230F22C47804B3154C246804F4E0646C
:10141000C4F5E064210AC1F10403CA40447804FA27
:1014200003F184781440214309010E4C0678A1553C
:10143000047804F01F050124AC4005786D11AD005F
:1014400005F1E025C5F8004109E0047804F01F0526
:101450000124AC40044D0678761145F8264070BD55
:101460000CED00E000E400E080E100E0024901430F
:10147000024A1160704700000000FA050CED00E020
:1014800010B5002807DA0A07140E054A00F00F030A
:101490001B1FD45403E00A07130E024A135410BD55
:1014A00018ED00E000E400E001460020034A506827
:1014B00020F4404008435060704700000010024094
:1014C00029B1064A92690243044B9A6104E0034A37
:1014D00092698243014B9A617047000000100240FC
:1014E00029B1064AD2680243044BDA6004E0034A99
:1014F000D2688243014BDA6070470000001002405E
:1015000030B500210022002400232D4D6D6805F028
:101510000C0121B1042905D0082923D105E0294D6A
:10152000056022E0274D05601FE0254D6D6805F43C
:101530007012234D6D6805F48034022505EB92424C
:101540001CB9214D554305600BE01D4D6D6805F438
:1015500000351DB11C4D5543056002E0194D554342
:10156000056002E0174D056000BF00BF144D6D68B7
:1015700005F0F0010909154D6B5C0568DD4045601B
:101580000F4D6D6805F4E061090A104D6B5C45680C
:10159000DD4085600A4D6D6805F46051C90A0B4D48
:1015A0006B5C4568DD40C560054D6D6805F44041E4
:1015B000890B074D6B5CC568B5FBF3F5056130BD64
:1015C0000010024000127A0000093D0000000020D7
:1015D0001000002010B5024614480078082802DBED
:1015E0004FF0FF3010BD1248104B1B7800EB03107A
:1015F00002600F480D4B1B7800EB031041600D4853
:1016000000680B4B094C247803EB0413986001230A
:101610000748064C247800EB041003730348007855
:10162000401C024B18700020DCE700004400002042
:10163000580200204800002010B50020044908701E
:101640000449086080210448FEF7A7FD10BD000092
:1016500044000020480000205802002010B500245B
:101660001EE0124800EB0410007BB8B10F4800EBFD
:10167000041080680E490968081A0C4901EB04112E
:10168000496888420AD30A480068084901EB0411F6
:101690008860064901EB041108688047601CC4B2E9
:1016A000044800788442DCDB10BD000058020020B2
:1016B000480000204400002010B500F001F810BDE3
:1016C0000CB50020019000903348006840F4803051
:1016D0003149086000BF3048006800F400300090D5
:1016E0000198401C0190009818B90198B0F5A06FBE
:1016F000F1D12948006800F4003010B101200090B9
:1017000001E0002000900098012843D123480068A0
:1017100040F01000214908600846006820F00300EE
:1017200008600846006840F0020008601A484068F7
:10173000194948600846406848600846406840F4D7
:10174000806048600846406820F47C104860084685
:10175000406840F4E81048600846006840F0807037
:10176000086000BF0C48006800F000700028F9D045
:101770000948406820F0030007494860084640686F
:1017800040F00200486000BF0348406800F00C00D1
:101790000828F9D10CBD00000010024000200240D2
:1017A00070B504460D461646FEF7DEFC1E2190FB82
:1017B000F1F201FB120000BBFEF7D6FC032190FB07
:1017C000F1F201FB120020B1012809D0022813D147
:1017D0000CE04FF08141C80101F056F920600BE0A8
:1017E0001D491E4801F050F9286005E01C491D48BC
:1017F00001F04AF9306000BF00BF1B492068FEF7C6
:10180000D3FD04D319492068FEF7D8FD04D2174947
:10181000154801F039F9206015492868FEF7C4FD24
:1018200004D314492868FEF7C9FD04D211491048B1
:1018300001F02AF9286010493068FEF7B5FD04D39D
:101840000E493068FEF7BAFD04D20C490A4801F08F
:101850001BF9306070BD00000000D0400000B040B7
:101860000000FA43000048430000C040000010415F
:101870009A99F940CDCC044100002041000070420B
:1018800005480068401C0449086004480068401C82
:101890000249086070470000480000204C0000200A
:1018A00010B5002100200022214B5B6803F00C01E1
:1018B00021B1042906D0082928D107E01D4B1E4C70
:1018C000236027E01B4B1C4C236023E0184B5B6814
:1018D00003F47010164B5B6803F48032022303EBB1
:1018E000904022B9154B4343134C23600DE0104B3D
:1018F0005B6803F4003323B1104B43430E4C236069
:1019000003E00C4B43430C4C236003E0094B0A4CAF
:10191000236000BF00BF064B5B68C3F30313084C92
:10192000E15C054B1B68CB40034C236010BD0000FD
:101930000010024000127A001400002000093D004F
:101940001800002010B51348006840F0010011494C
:10195000086008464068104908400E49486008463B
:1019600000680E4908400B4908600846006820F4EA
:10197000802008600846406820F4FE0048604FF46C
:101980001F008860FFF798FE4FF000600449086070
:1019900010BD0000001002400000FFF8FFFFF6FE3F
:1019A00008ED00E02DE9F0414FF4A060FFF75EFD87
:1019B000FFF7A2FAFFF76AF9FFF764F84FF4E13096
:1019C00000F08EFAFFF738FEFFF76AFF2D48006837
:1019D0004FF47A71B0FBF1F4B4F1807F01D30120B0
:1019E00011E024F07F40401E4FF0E02148610F21BC
:1019F0004FF0FF30FFF744FD00204FF0E0218861F9
:101A000007200861002008B100BFFEE74FF4A06185
:101A10000122002301F00700C0F10707042F01D9BC
:101A2000042701E0C0F107073E46071D072F01D23A
:101A3000002700E0C71E3D460127B7407F1E174024
:101A4000AF404FF0010C0CFA05FCACF1010C0CEAB4
:101A5000030C47EA0C0421464FF0FF30FFF710FD5E
:101A600040F6B8310848FFF7B5FD40F6B8310748F1
:101A7000FFF7B0FD42F210710548FFF7ABFDBDE87E
:101A8000F081000014000020B11B0008951A000826
:101A9000091C00082DE9F047D2B03248007810B197
:101AA0003148007810B952B0BDE8F0872F4800687F
:101AB000FEF766FC04460D462D480068FEF760FC04
:101AC00006460F462B480068FEF75AFC80468946BA
:101AD00029480068FEF754FCCDE91001274800684A
:101AE000FEF74EFCCDE90E0125480068FEF748FCE4
:101AF000CDE90689CDE90867CDE90A45CDE90C01B4
:101B0000DDE91001CDE90401DDE90E01CDE90201B5
:101B1000DDE90C011BA2CDE900011F4912A800F06C
:101B200045FB00200F49087000F0AAF912A800F048
:101B300029FA4FF0000A0DE0642000F0CFFF17A053
:101B400000F08EF918B916A000F08AF900B1AAE7E2
:101B50000AF1010ABAF10F0FEEDB0020024908700A
:101B600000BFA0E740000020410000203C00002012
:101B70003800002034000020300000202C0000201D
:101B80002800002061756163756C747572655F7300
:101B9000656E736F72000000282B00084F4B000029
:101BA0002B4D5154545055424C4953484544000024
:101BB0001CB5694601A8FFF77FF828B90B490198C1
:101BC00008600B49009808600520FEF7A1FF044655
:101BD000FFF732F807490860074A08490848FFF745
:101BE000DFFD0120074908701CBD0000280000200F
:101BF0002C000020300000203C0000203800002095
:101C0000340000204000002010B5A2B054480078F5
:101C100008B122B010BD00F033F952A000F0B2F9C3
:101C2000002408E0642000F059FF51A000F018F9EA
:101C300000B102E0641C0A2CF4DB00BF0A2C20DB9C
:101C40004DA350A251A102A800F0B0FA00F018F97B
:101C500002A800F097F900240DE04FF4FA7000F0AC
:101C60003DFF4FA000F0FCF818B94EA000F0F8F8C6
:101C700000B102E0641C1E2CEFDB00BF1E2C00DB59
:101C8000C7E700F0FDF84BA000F07CF9002408E065
:101C9000642000F023FF42A000F0E2F800B102E06F
:101CA000641C0A2CF4DB00BF00F0EAF834A034A373
:101CB00044A248A1009002A800F078FA02A800F01F
:101CC00061F9002408E0642000F008FF34A000F06F
:101CD000C7F800B102E0641C0A2CF4DB00BF00F07E
:101CE000CFF840F25B7346A249A102A800F05EFA69
:101CF00002A800F047F900240DE04FF4FA7000F05C
:101D0000EDFE27A000F0ACF818B947A000F0A8F845
:101D100000B102E0641C1E2CEFDB00BF1E2C00DBB8
:101D200077E700F0ADF844A248A102A800F03EFA1F
:101D300002A800F027F9002408E0642000F0CEFE9D
:101D400017A000F08DF800B102E0641C0A2CF4DB4F
:101D500000BF00F095F801200149087000BF58E766
:101D60004100002041542B43574A41503F0000009E
:101D70002B43574A41503A003132333435363738E5
:101D80000000000073756E62616F000041542B43C8
:101D9000574A41503D222573222C222573220000F0
:101DA0004F4B00005749464920434F4E4E45435440
:101DB0004544000041542B4D515454434C45414E31
:101DC0003D30000073746D33325F66315F30303107
:101DD0000000000041542B4D51545455534552437B
:101DE00046473D302C312C222573222C222573228C
:101DF0002C222573222C302C302C222200000000B3
:101E00003131382E3137382E3233362E31353600D7
:101E100041542B4D515454434F4E4E3D302C2225AE
:101E200073222C25642C30002B4D515454434F4EBB
:101E30004E4543544544000061756163756C74758B
:101E400072655F73656E736F7200000041542B4DB5
:101E50005154545355423D302C222573222C3100CD
:101E600010B504460CB9002010BD21460348FEF70A
:101E70009FF908B10120F7E70020F5E7580000209E
:101E800010B50020034908804FF400710248FEF7A6
:101E900084F910BD420000205800002010B540F227
:101EA00025510C4800F0BBF898B10A4800F072F9CF
:101EB000C4B209480088B0F5FF7F09DC06490888EC
:101EC000411C054A118005490C5400201288885491
:101ED00000BF10BD00380140420000205800002023
:101EE00010B586B00446012144F20400FFF7E8FA79
:101EF0004FF40070ADF8140018208DF8170003207F
:101F00008DF8160005A91D48FFF78AF94FF4806087
:101F1000ADF8140004208DF8170005A91748FFF745
:101F20007FF901940020ADF80800ADF80A00ADF883
:101F30000C00ADF810000C20ADF80E0001A91048FF
:101F400000F0BCF8012240F225510D4800F091F854
:101F500025208DF8000005208DF8010000208DF867
:101F6000020001208DF803006846FFF747FA0121BF
:101F7000034800F03BF806B010BD00000008014027
:101F80000038014010B50446204600F019F800BFA3
:101F900080210A4800F036F80028F9D00D210748C2
:101FA00000F0FDF800BF8021044800F02BF8002865
:101FB000F9D00A21014800F0F2F810BD00380140C4
:101FC00010B504460BE000BF8021074800F01AF866
:101FD0000028F9D014F8011B034800F0E0F820783D
:101FE0000028F0D110BD00000038014021B18289E5
:101FF00042F40052828104E082894DF6FF731A4058
:102000008281704702460020B1F5007F00D100BFF9
:1020100013880B400BB1012000E00020704770B521
:102020000246002400230025002040F66A16B14233
:1020300000D100BFC1F3421501F01F03012606FACB
:1020400003F3012D02D19689334006E0022D02D11F
:10205000168A334001E0968A33400C12012606FAB4
:1020600004F41688344013B10CB1012000E00020C4
:1020700070BDF0B50346002400260025002040F680
:102080006A17B94200D100BF1846C1F3421401F0EB
:102090001F06012707FA06F5012C01D10C3004E0D8
:1020A000022C01D1103000E014301AB107682F4320
:1020B000076002E00768AF430760F0BD2DE9F04715
:1020C00086B005460E460024A24600BFA146002762
:1020D000B08900B100BF2F462C8A4CF6FF70044037
:1020E000F08804432C82AC894EF6F3100440B0888B
:1020F00031890843718908430443AC81AC8A4FF6A7
:10210000FF400440B0890443AC8201A8FFF7F8F90E
:102110001F48874202D1DDF810A001E0DDF80CA0D5
:10212000A88900F4004040B10AEBCA0000EB0A1095
:1021300031684900B0FBF1F807E00AEBCA0000EB98
:102140000A1031688900B0FBF1F86420B8FBF0F0A8
:1021500004012009642101FB1089A88900F40040D2
:1021600040B1322000EBC900B0FBF1F000F00700F5
:10217000044308E0322000EB09106421B0FBF1F0C9
:1021800000F00F0004432C8106B0BDE8F08700008A
:102190000038014001468888C0F308007047C1F349
:1021A00008028280704700BFFEE700000FB4084BB2
:1021B00010B504A902AA039800F0CEF8044602A9BB
:1021C000002000F085FC204610BC5DF814FB0000E8
:1021D000D12A000802E008C8121F08C1002AFAD15B
:1021E00070477047002001E001C1121F002AFBD197
:1021F000704700002DE9FF5FDDE90220010DDDF8E9
:1022000038B0024318D044F61050A1F2FF314143D8
:102210000D140F98012820D0A5EB0B00401C5FEA9D
:10222000000A4FF00004474EDFF81C91A0465046CC
:1022300016D5CAF1000728E00F98012443A201280F
:1022400008D0002100980F9BC0E90021C0E902439B
:10225000BDE8FF9F6FEA0B01F4E7CBF10000DEE77A
:10226000074612E0F80707D0224633464046494663
:10227000FEF7D3F980468946224633461046194672
:10228000FEF7CBF904460E467F10002FEAD1DDE9B8
:102290000201BAF1000F42464B4602DAFEF7BDF9E1
:1022A00001E0FEF72CFA04460E460022284BFEF70A
:1022B000ADFA03D84FF0FF30014607E00022254B6E
:1022C00020463146FEF702F9FEF788FA102409E0AD
:1022D000002C0ADB0A220023FEF790F8019B303223
:1022E0001A55641E50EA0102F2D1641C019AC4F12D
:1022F000110314440F9A012A03D0012208430DD17F
:102300000AE0084304D000204FF0110B0F9080E743
:10231000A3EB0B056D1E0DE05B4504DD4FF00002E5
:1023200005F1010504E003DA4FF00002A5F1010513
:10233000002AECD000980F99C0E90231C0E90045AD
:1023400086E70000000024400000F03F300000005D
:102350000000F0430000E03F2DE9FF4F95B09B46A1
:102360008946064600250FE2252877D10024274616
:10237000F84A0121059400E0044316F8013F203B90
:1023800001FA03F01042F7D130782A2811D06FF00B
:102390002F033078A0F13002092A16D8059A44F0AC
:1023A000020402EB820203EB42021044761C059009
:1023B000EFE759F8042B0592002A03DA504244F45F
:1023C0000054059044F00204761C30782E2816D173
:1023D00016F8010F44F004042A280DD06FF02F02E4
:1023E0003078A0F13003092B09D807EB870302EB03
:1023F0004303C718761CF3E759F8047B761C307842
:102400006C280FD006DC4C2817D068280DD06A281D
:1024100014D104E0742810D07A280FD10DE044F4D0
:1024200000140AE044F4801401E044F4401472788B
:10243000824202D104F58014761C761C307866281E
:102440000BD013DC582877D009DC002875D045283C
:10245000F6D04628F4D047281AD19DE118E0632829
:1024600035D0642879D0652812D195E1702873D0D1
:1024700008DC6728F1D069286FD06E280DD06F284E
:1024800006D1B5E073282CD0752875D0782874D083
:102490005A46179990476D1C75E1C4F30250022803
:1024A00009D003280DD0D9F8001004280DD00D60F4
:1024B00009F1040967E1D9F80010EA17C1E90052EF
:1024C000F6E7D9F800100D80F2E70D70F0E719F883
:1024D000041B8DF8001000208DF80100EA46012051
:1024E00003E059F804AB4FF0FF3061074FF00001F3
:1024F00002D40DE008F101018846B9420FDA8045A7
:10250000F8DB1AF808100029F4D108E008F10101FD
:1025100088468142FADB1AF808100029F6D105989E
:102520005B46A0EB080721463846179A00F094FA5C
:10253000284400EB080507E04DE029E10DE01AF81A
:10254000010B5A4617999047B8F10108F7D25B463C
:1025500021463846179A13E142E00A220092C4F35A
:1025600002524FF0000A022A08D059F804CB032A7D
:102570004FEAEC710AD00DE029E02AE009F10701E9
:1025800021F00702F2E802C1914609E00FFA8CFC43
:102590004FEAEC71042A03D14FFA8CFC4FEAEC713C
:1025A000002907DA0A460021DCF1000C61EB020188
:1025B0002D2202E0220504D52B228DF804200122D1
:1025C00003E0E20701D02022F7E7904659E00A2114
:1025D00002E010220DE010214FF0000A00910BE004
:1025E00010224FF0000A44F004040827009203E090
:1025F00008224FF0000A0092C4F30252022A05D0CA
:1026000059F804CB0021032A08D009E009F1070199
:1026100021F00702F2E802C1914605E01FFA8CFCA6
:10262000042A01D10CF0FF0C4FF00008220728D536
:10263000702806D0009B83F0100353EA0A0305D0EC
:102640000EE040228DF80420012208E05CEA01023D
:1026500006D030228DF804208DF805000222904625
:10266000009B83F0080353EA0A030AD15CEA0102E3
:1026700001D1620705D530228DF804204FF0010802
:102680007F1E582804D034A003900EA802900DE0BD
:1026900036A0F9E753466046009AFDF7AFFE844640
:1026A0000398825C0298401E029002705CEA01006E
:1026B000F0D1029806A9081A00F1200A600702D595
:1026C00024F4803400E00127574502DDA7EB0A001F
:1026D00000E0002000EB0A01009005984144401AF8
:1026E0000590E00306D45B462146179A059800F052
:1026F000B3F90544002706E001A85A46C05D1799C2
:1027000090476D1C7F1C4745F6DBE0030CD55B460C
:102710002146179A059800F09FF9054404E03020FF
:102720005A46179990476D1C0099481E0090002941
:10273000F5DC08E0029802995A460078491C02919B
:10274000179990476D1CBAF10001AAF1010AF1DC5A
:1027500065E1000009280100303132333435363765
:1027600038396162636465660000000030313233DD
:10277000343536373839414243444546000000007D
:1027800000F058F90544761C307800287FF4ECAD51
:1027900019B02846BDE8F08F620700D4062709F17A
:1027A000070222F0070CFCE80223E14603F0004890
:1027B0005FEA080C02D00FF2702C0DE05FEA045CB7
:1027C00002D50FF2682C07E05FEAC47C02D00FF25A
:1027D000602C01E0AFF2700C4FF0FF3823F00043A3
:1027E000CDF850C065280CD006DC452809D0462815
:1027F0001DD047283DD13DE0662818D067287ED1FE
:1028000038E00021112F01DB112000E0781CCDE918
:10281000000106A90EA8FFF7EDFCDDE90F010E9AF5
:1028200003910021009207F1010A04914DE04FF05D
:1028300000400097CDE9011006A90EA8FFF7DAFCC9
:10284000DDE90F0203920E9B11990022DDF80CA026
:102850000093049211B9791C00EB010AB7EB0A004E
:1028600004D4C0F1FF3007F1010A0490AAEB07007D
:10287000019044E0012F00DA01270021112F01DD32
:10288000112000E03846CDE9000106A90EA8FFF7A7
:10289000B1FCDDE90F010E9A039100210491009231
:1028A000BA4621070CD40399514500DA8A46BAF199
:1028B000010F05DD009AAAF10101515C302908D011
:1028C000B84202DA10F1040F06DA0121CDE9011055
:1028D00015E0AAF10101E9E7002805DC04990144AB
:1028E0000491AAEB000102E0411C514500DD8A463B
:1028F0000499401A401C01904FF0004002902007BC
:1029000004D40198504501DBCDF8048000208DF8F7
:102910004F0002980DF14F07B0F1004F25D02B204A
:102920000E9002984FF0020800280CDA4042029004
:102930002D200E9007E00A210298FDF749FD303165
:10294000029007F8011DB8F10001A8F10108F2DCBE
:1029500002980028EFD1791E0E980870307800F0A8
:10296000200040F0450007F8020D12A8C01B00F13E
:1029700007081498007800B1012000EB0A010198C3
:1029800001EBE07105984144401A401E0590E003B8
:1029900006D45B462146179A059800F05DF8054479
:1029A0001498007818B15A46179990476D1CE003A7
:1029B00024D55B462146179A059800F04DF805444A
:1029C0001CE00498002807DBDDE90301884203DDF1
:1029D0000098405C179901E0179930205A469047BB
:1029E000049805F10105401C04900198401E0190D7
:1029F00004D12E205A46179990476D1CBAF1000158
:102A0000AAF1010ADDDC05E017F8010B5A46179917
:102A100090476D1CB8F10001A8F10108F4DC5B4699
:102A20002146179A0598ABE62D0000002B00000008
:102A3000200000002DE9F041044600251E461746FF
:102A4000880404D405E039462020B0476D1C641E7C
:102A5000F9D52846BDE8F0812DE9F041044600256E
:102A60001E469046C80301D5302700E02027880481
:102A700004D505E041463846B0476D1C641EF9D5C3
:102A80002846BDE8F08100002DE9F04704460D46D8
:102A900029462046FDF7F3FB8246FDF765FB4FF420
:102AA0007A7190FBF1F201FB12094846FDF75AFCDE
:102AB00080460649FDF718FC07465146FDF7E2FB44
:102AC00006462146FDF786FBBDE8F08700007A4404
:102AD0000A68531C0B60107070470000044A1168AC
:102AE00000BF034A1268521A8242FAD370470000AC
:102AF0004C00002010B5044603E04FF47A70FFF755
:102B0000EDFF2000A4F10104F7D110BDFEF74AFF4C
:102B10000120FFF7EFFFFEF711FA04E0FEF79EFD3C
:102B20000A20FFF7DBFFF9E741542B4D5154545075
:102B300055423D302C222573222C227B5C22746569
:102B40006D705C223A252E31665C2C5C2268756DB6
:102B5000695C223A252E31665C2C5C226C696768C0
:102B6000745C223A252E30665C2C5C22646F5C22F9
:102B70003A252E32665C2C5C2270685C223A252E47
:102B800032665C2C5C22747572625C223A252E31AE
:102B9000667D222C302C3000B82B0008000000206D
:102BA00058000000D4210008102C00085800002014
:102BB00080060000E4210008000000000102030478
:102BC00001020304060708090204060800A24A04D9
:102BD00000000000000000000102030406070809CD
:102BE00000000000000000000000000000000000E5
:102BF00000000000000000000000000000000000D5
:102C0000000000000000000048000000000000007C
:0400000508000131BD
:00000001FF
